{
  "_format": "hh-sol-artifact-1",
  "contractName": "Multicall",
  "sourceName": "contracts/Multicall.sol",
  "abi": [
    {
      "inputs": [],
      "stateMutability": "nonpayable",
      "type": "constructor"
    },
    {
      "inputs": [
        {
          "components": [
            {
              "internalType": "address",
              "name": "target",
              "type": "address"
            },
            {
              "internalType": "bytes",
              "name": "callData",
              "type": "bytes"
            },
            {
              "internalType": "uint256",
              "name": "ethtosell",
              "type": "uint256"
            },
            {
              "internalType": "uint256",
              "name": "gaslimit",
              "type": "uint256"
            }
          ],
          "internalType": "struct Multicall.Call[]",
          "name": "calls",
          "type": "tuple[]"
        }
      ],
      "name": "aggregate",
      "outputs": [
        {
          "internalType": "uint256",
          "name": "blockNumber",
          "type": "uint256"
        },
        {
          "internalType": "bytes[]",
          "name": "returnData",
          "type": "bytes[]"
        },
        {
          "internalType": "uint256[]",
          "name": "gasUsed",
          "type": "uint256[]"
        }
      ],
      "stateMutability": "nonpayable",
      "type": "function"
    },
    {
      "inputs": [
        {
          "internalType": "uint256",
          "name": "blocknb",
          "type": "uint256"
        }
      ],
      "name": "getBlockHash",
      "outputs": [
        {
          "internalType": "bytes32",
          "name": "blockHash",
          "type": "bytes32"
        }
      ],
      "stateMutability": "view",
      "type": "function"
    },
    {
      "inputs": [],
      "name": "getCurrentBlockCoinbase",
      "outputs": [
        {
          "internalType": "address",
          "name": "minerAddress",
          "type": "address"
        }
      ],
      "stateMutability": "view",
      "type": "function"
    },
    {
      "inputs": [],
      "name": "getCurrentBlockDifficulty",
      "outputs": [
        {
          "internalType": "uint256",
          "name": "diff",
          "type": "uint256"
        }
      ],
      "stateMutability": "view",
      "type": "function"
    },
    {
      "inputs": [],
      "name": "getCurrentBlockTimestamp",
      "outputs": [
        {
          "internalType": "uint256",
          "name": "currentTimestamp",
          "type": "uint256"
        }
      ],
      "stateMutability": "view",
      "type": "function"
    },
    {
      "inputs": [],
      "name": "getCurrentGasLimit",
      "outputs": [
        {
          "internalType": "uint256",
          "name": "limitGas",
          "type": "uint256"
        }
      ],
      "stateMutability": "view",
      "type": "function"
    },
    {
      "inputs": [
        {
          "internalType": "address",
          "name": "addr",
          "type": "address"
        }
      ],
      "name": "getEthBalance",
      "outputs": [
        {
          "internalType": "uint256",
          "name": "balance",
          "type": "uint256"
        }
      ],
      "stateMutability": "view",
      "type": "function"
    },
    {
      "inputs": [],
      "name": "getLastBlockHash",
      "outputs": [
        {
          "internalType": "bytes32",
          "name": "lastBlockHash",
          "type": "bytes32"
        }
      ],
      "stateMutability": "view",
      "type": "function"
    },
    {
      "inputs": [
        {
          "internalType": "uint256",
          "name": "amount",
          "type": "uint256"
        }
      ],
      "name": "rescueEth",
      "outputs": [],
      "stateMutability": "nonpayable",
      "type": "function"
    },
    {
      "inputs": [
        {
          "internalType": "address",
          "name": "_tokenContract",
          "type": "address"
        },
        {
          "internalType": "uint256",
          "name": "_amount",
          "type": "uint256"
        }
      ],
      "name": "withdraw",
      "outputs": [],
      "stateMutability": "nonpayable",
      "type": "function"
    },
    {
      "stateMutability": "payable",
      "type": "receive"
    }
  ],
  "bytecode": "0x608060405234801561001057600080fd5b50336000806101000a81548173ffffffffffffffffffffffffffffffffffffffff021916908373ffffffffffffffffffffffffffffffffffffffff16021790555061101c806100606000396000f3fe6080604052600436106100955760003560e01c8063739f08c811610059578063739f08c81461019e578063a8b0574e146101c7578063d65cd010146101f2578063ee82ac5e1461021d578063f3fef3a31461025a5761009c565b80630f28c97d146100a157806327e86d6e146100cc5780634d2301cc146100f75780636a6ac8541461013457806372425d9d146101735761009c565b3661009c57005b600080fd5b3480156100ad57600080fd5b506100b6610283565b6040516100c39190610be6565b60405180910390f35b3480156100d857600080fd5b506100e161028b565b6040516100ee9190610bab565b60405180910390f35b34801561010357600080fd5b5061011e6004803603810190610119919061087e565b6102a0565b60405161012b9190610be6565b60405180910390f35b34801561014057600080fd5b5061015b600480360381019061015691906108eb565b6102c1565b60405161016a93929190610c01565b60405180910390f35b34801561017f57600080fd5b506101886105c8565b6040516101959190610be6565b60405180910390f35b3480156101aa57600080fd5b506101c560048036038101906101c09190610965565b6105d0565b005b3480156101d357600080fd5b506101dc6106a8565b6040516101e99190610b67565b60405180910390f35b3480156101fe57600080fd5b506102076106b0565b6040516102149190610be6565b60405180910390f35b34801561022957600080fd5b50610244600480360381019061023f9190610965565b6106b8565b6040516102519190610bab565b60405180910390f35b34801561026657600080fd5b50610281600480360381019061027c91906108ab565b6106c3565b005b600042905090565b600060014361029a9190610d7b565b40905090565b60008173ffffffffffffffffffffffffffffffffffffffff16319050919050565b600060608060008054906101000a900473ffffffffffffffffffffffffffffffffffffffff1673ffffffffffffffffffffffffffffffffffffffff163373ffffffffffffffffffffffffffffffffffffffff1614610354576040517f08c379a000000000000000000000000000000000000000000000000000000000815260040161034b90610bc6565b60405180910390fd5b4392508484905067ffffffffffffffff81111561037457610373610eea565b5b6040519080825280602002602001820160405280156103a757816020015b60608152602001906001900390816103925790505b5091508484905067ffffffffffffffff8111156103c7576103c6610eea565b5b6040519080825280602002602001820160405280156103f55781602001602082028036833780820191505090505b50905060005a905060006040518060400160405280600181526020016000815250905060005b878790508110156105be5760008089898481811061043c5761043b610ebb565b5b905060200281019061044e9190610ca9565b6000016020810190610460919061087e565b73ffffffffffffffffffffffffffffffffffffffff168a8a8581811061048957610488610ebb565b5b905060200281019061049b9190610ca9565b604001358b8b868181106104b2576104b1610ebb565b5b90506020028101906104c49190610ca9565b60600135908c8c878181106104dc576104db610ebb565b5b90506020028101906104ee9190610ca9565b80602001906104fd9190610c46565b60405161050b929190610b4e565b600060405180830381858888f193505050503d8060008114610549576040519150601f19603f3d011682016040523d82523d6000602084013e61054e565b606091505b50915091508161055c578390505b808784815181106105705761056f610ebb565b5b60200260200101819052505a856105879190610d7b565b86848151811061059a57610599610ebb565b5b6020026020010181815250505a9450505080806105b690610e43565b91505061041b565b5050509250925092565b600044905090565b60008054906101000a900473ffffffffffffffffffffffffffffffffffffffff1673ffffffffffffffffffffffffffffffffffffffff163373ffffffffffffffffffffffffffffffffffffffff161461065e576040517f08c379a000000000000000000000000000000000000000000000000000000000815260040161065590610bc6565b60405180910390fd5b3373ffffffffffffffffffffffffffffffffffffffff166108fc829081150290604051600060405180830381858888f193505050501580156106a4573d6000803e3d6000fd5b5050565b600041905090565b600045905090565b600081409050919050565b60008054906101000a900473ffffffffffffffffffffffffffffffffffffffff1673ffffffffffffffffffffffffffffffffffffffff163373ffffffffffffffffffffffffffffffffffffffff1614610751576040517f08c379a000000000000000000000000000000000000000000000000000000000815260040161074890610bc6565b60405180910390fd5b60008290508073ffffffffffffffffffffffffffffffffffffffff1663a9059cbb33846040518363ffffffff1660e01b8152600401610791929190610b82565b602060405180830381600087803b1580156107ab57600080fd5b505af11580156107bf573d6000803e3d6000fd5b505050506040513d601f19601f820116820180604052508101906107e39190610938565b50505050565b6000813590506107f881610fa1565b92915050565b60008083601f84011261081457610813610f1e565b5b8235905067ffffffffffffffff81111561083157610830610f19565b5b60208301915083602082028301111561084d5761084c610f2d565b5b9250929050565b60008151905061086381610fb8565b92915050565b60008135905061087881610fcf565b92915050565b60006020828403121561089457610893610f3c565b5b60006108a2848285016107e9565b91505092915050565b600080604083850312156108c2576108c1610f3c565b5b60006108d0858286016107e9565b92505060206108e185828601610869565b9150509250929050565b6000806020838503121561090257610901610f3c565b5b600083013567ffffffffffffffff8111156109205761091f610f37565b5b61092c858286016107fe565b92509250509250929050565b60006020828403121561094e5761094d610f3c565b5b600061095c84828501610854565b91505092915050565b60006020828403121561097b5761097a610f3c565b5b600061098984828501610869565b91505092915050565b600061099e8383610ad4565b905092915050565b60006109b28383610b30565b60208301905092915050565b6109c781610daf565b82525050565b60006109d882610cf1565b6109e28185610d2c565b9350836020820285016109f485610cd1565b8060005b85811015610a305784840389528151610a118582610992565b9450610a1c83610d12565b925060208a019950506001810190506109f8565b50829750879550505050505092915050565b6000610a4d82610cfc565b610a578185610d3d565b9350610a6283610ce1565b8060005b83811015610a93578151610a7a88826109a6565b9750610a8583610d1f565b925050600181019050610a66565b5085935050505092915050565b610aa981610dcd565b82525050565b6000610abb8385610d5f565b9350610ac8838584610e01565b82840190509392505050565b6000610adf82610d07565b610ae98185610d4e565b9350610af9818560208601610e10565b610b0281610f41565b840191505092915050565b6000610b1a602583610d6a565b9150610b2582610f52565b604082019050919050565b610b3981610df7565b82525050565b610b4881610df7565b82525050565b6000610b5b828486610aaf565b91508190509392505050565b6000602082019050610b7c60008301846109be565b92915050565b6000604082019050610b9760008301856109be565b610ba46020830184610b3f565b9392505050565b6000602082019050610bc06000830184610aa0565b92915050565b60006020820190508181036000830152610bdf81610b0d565b9050919050565b6000602082019050610bfb6000830184610b3f565b92915050565b6000606082019050610c166000830186610b3f565b8181036020830152610c2881856109cd565b90508181036040830152610c3c8184610a42565b9050949350505050565b60008083356001602003843603038112610c6357610c62610f28565b5b80840192508235915067ffffffffffffffff821115610c8557610c84610f23565b5b602083019250600182023603831315610ca157610ca0610f32565b5b509250929050565b600082356001608003833603038112610cc557610cc4610f28565b5b80830191505092915050565b6000819050602082019050919050565b6000819050602082019050919050565b600081519050919050565b600081519050919050565b600081519050919050565b6000602082019050919050565b6000602082019050919050565b600082825260208201905092915050565b600082825260208201905092915050565b600082825260208201905092915050565b600081905092915050565b600082825260208201905092915050565b6000610d8682610df7565b9150610d9183610df7565b925082821015610da457610da3610e8c565b5b828203905092915050565b6000610dba82610dd7565b9050919050565b60008115159050919050565b6000819050919050565b600073ffffffffffffffffffffffffffffffffffffffff82169050919050565b6000819050919050565b82818337600083830152505050565b60005b83811015610e2e578082015181840152602081019050610e13565b83811115610e3d576000848401525b50505050565b6000610e4e82610df7565b91507fffffffffffffffffffffffffffffffffffffffffffffffffffffffffffffffff821415610e8157610e80610e8c565b5b600182019050919050565b7f4e487b7100000000000000000000000000000000000000000000000000000000600052601160045260246000fd5b7f4e487b7100000000000000000000000000000000000000000000000000000000600052603260045260246000fd5b7f4e487b7100000000000000000000000000000000000000000000000000000000600052604160045260246000fd5b600080fd5b600080fd5b600080fd5b600080fd5b600080fd5b600080fd5b600080fd5b600080fd5b6000601f19601f8301169050919050565b7f596f7520617265206e6f7420746865206f776e6572206f662074686520636f6e60008201527f7472616374000000000000000000000000000000000000000000000000000000602082015250565b610faa81610daf565b8114610fb557600080fd5b50565b610fc181610dc1565b8114610fcc57600080fd5b50565b610fd881610df7565b8114610fe357600080fd5b5056fea2646970667358221220df11b71c2c737b8565e7e16dcf2e7b18fba29e82091990dbbceebed781fda9ab64736f6c63430008070033",
  "linkReferences": {},
  "deployedLinkReferences": {}
}